:020000020000FC
:040000000C947200EA
:1000E40070E00FEF0DBF01E20EBF00EF00930A01B5
:1000F4000FEF00BB01B9002701BB02B908E38AD0A6
:10010400A3D0BED008E386D09FD0B1D008E382D07C
:100114009BD008E37FD098D008E07CD095D001E054
:1001240079D092D006E076D08FD00EE073D08CD008
:100134003FEE222730930B010FEF0A95F1F7009160
:1001440009010F700F3061F031E01127402F432374
:1001540019F40DD00C949A001395330F0C94A80045
:10016400233031F30894331F23950C949C00703191
:10017400D9F4772708E34ED067D082D008E34AD079
:1001840063D075D008E346D05FD008E343D05CD099
:1001940008E040D059D001E03DD056D006E03AD036
:1001A40053D00EE037D050D0233069F0133099F09B
:1001B400012F000F010F020F039560E3060F35D0E6
:1001C40043D00C94FE000AE0010F67E3060F2DD024
:1001D4003BD00C94FE00203039F0213051F003E282
:1001E40024D032D00C94FE000AE21FD02DD00C94FF
:1001F400FE0000E31AD028D07395D1E050E0A0ECC3
:10020400B7E2C9E0AD1BB50BC50BA517B507C5070C
:10021400C9F7089501BB0000169A00000000000011
:100224001698000000000000089501BB179A000012
:1002340000000000169A000000000000169800005C
:1002440000000000179808950F93002700BB01BB1E
:10025400159A0000169A0000000000000FB11698CD
:1002640007FDF7CF15980FEF00BB0F9108958F93FB
:100274009F939FE08CE90197F1F79F918F910895E7
:0C028400F6DFF5DFF4DFF3DFF2DF0895B2
:00000001FF
