:020000020000FC
:0C0000000C9433000C9432000C9432007D
:10005C000C9442000C943200189520E070E010E0F3
:10006C0060E00FEF0DBF01E20EBF0FEF00BB01B957
:10007C00002701BB02B9A4C05FB75F93DF93CF9396
:10008C009F938F9380910202909103020196843882
:10009C005EE1950709F40BC0809302029093030272
:1000AC008F919F91CF91DF915F915FBF189508E37E
:1000BC004BD064D07FD008E347D060D072D008E337
:1000CC0043D05CD008E340D059D008E03DD056D0A6
:1000DC0001E03AD053D006E037D050D00EE034D007
:1000EC004DD0012F40E3040F3AD048D0062F40E307
:1000FC00040F35D043D00AE332D040D0022F40E376
:10010C00040F2DD03BD0072F40E3040F28D036D05E
:10011C0073957A3051F470E02395263031F420E059
:10012C0063956A3011F460E01395C2E0D2E0552774
:10013C00599358838091000290910102019680930B
:10014C00000290930102ACCF01BB0000169A000094
:10015C00000000001698000000000000089501BB8C
:10016C00179A000000000000169A00000000000022
:10017C001698000000000000179808950F930027B0
:10018C0000BB01BB159A0000169A0000000000008D
:10019C000FB1169807FDF7CF15980FEF00BB0F9115
:1001AC0008958F939F939FE08CE90197F1F79F91AE
:1001BC008F910895F6DFF5DFF4DFF3DFF2DF0895BA
:1001CC00C2E0D2E0552759935883C0E0D2E05527BE
:1001DC005993588350E054BD52E055BD51E05093B3
:0601EC006E007894FFCFC5
:00000001FF
