:020000020000FC
:040000000C947200EA
:1000E40050E088277727FF24EE240FEF0DBF01E2AD
:1000F4000EBF00EF00930A010FEF00BB01B9002708
:1001040001BB02B908E3BED0D7D0F2D008E3BAD01D
:10011400D3D0E5D008E3B6D0CFD008E3B3D0CCD069
:1001240008E0B0D0C9D001E0ADD0C6D006E0AAD076
:10013400C3D00EE0A7D0C0D03FEE222730930B01EE
:100144000FEF0A95F1F7009109010F700F3061F07C
:1001540031E01127402F432319F40DD00C949E0055
:100164001395330F0C94AC00233031F30894331FF0
:1001740023950C94A0002330C9F0133009F002C079
:100184000C942601012F000F010F020F03956AE062
:10019400869F802D769F702D810D60E0700F861FE5
:1001A40060E3060F7AD088D00C943701103041F008
:1001B4001130F1F0123011F00C9437010C9412014B
:1001C4000DE26BD079D0513061F0523029F0E72E36
:1001D400F82E7727882709C0E71AF80A772788278F
:1001E40004C0E70EF81E7727882752E00C943701E5
:1001F4000BE253D061D0513061F0523029F0E72E38
:10020400F82E7727882709C0E71AF80A772788275E
:1002140004C0E70EF81E7727882751E00C943701B5
:100224000DE33BD049D0513039F0523001F0E71A98
:10023400F80A7727882704C0E70EF81E772788274F
:100244000C9480010C943701203021F0213021F0EE
:100254000C9437010C94370100E31FD02DD06AE0D1
:10026400869F802D769F702D810D61E0DD24B0EC9A
:10027400C7E2D9E0B61BCD09DD09BD15CD05DD0505
:10028400C9F7089501BB0000169A000000000000A1
:100294001698000000000000089501BB179A0000A2
:1002A40000000000169A00000000000016980000EC
:1002B40000000000179808950F93002700BB01BBAE
:1002C400159A0000169A0000000000000FB116985D
:1002D40007FDF7CF15980FEF00BB0F9108958F938B
:1002E4009F939FE08CE90197F1F79F918F91089577
:1002F400F6DFF5DFF4DFF3DFF2DF089590E1392E66
:1003040097E2492E98EE592E93E0692E94E6792EC1
:100314009AE0892ECC24BB24AA249924662790E849
:100324009F21903009F002C00C94250290E0E30C68
:10033400F41CC394E916F906D4F3E318F408CA9438
:100344000F2D40E3040FA9DFB7DF0E2D40E3040FA8
:10035400A4DFB2DFE50CF61CB394E916F906D4F376
:10036400E518F608BA940F2D40E3040F96DFA4DFD6
:100374000E2D40E3040F91DF9FDFE70CF91EA394D9
:10038400E916F906D4F3E718F90AAA940F2D40E305
:10039400040F83DF91DF0E2D40E3040F7EDF8CDF3B
:1003A400E80CF91E9394E916F906D4F3E818F90A4F
:1003B4009A940F2D40E3040F70DF7EDF0E2D40E38F
:1003C400040F6BDF79DF6E2D0F2D40E3040F65DF23
:1003D40073DF0E2D40E3040F60DF6EDFFFCF08E311
:1003E40051DF6ADF85DF08E34DDF66DF78DF08E38E
:1003F40049DF62DF08E346DF5FDF08E043DF5CDFFD
:1004040001E040DF59DF06E03DDF56DF0EE03ADF72
:1004140053DF0DE242DF50DF0C2DB0E30B0F3DDF65
:100424004BDF0B2D0B0F39DF47DF0A2D0B0F35DFA9
:1004340043DF092D0B0F31DF3FDF062F0B0F2DDFBD
:100444003BDF0C94240190E0E318F408C394E9160C
:10045400F906D4F7E30CF41CCA940F2D40E3040FFF
:100464001CDF2ADF0E2D40E3040F17DF25DFE5181C
:10047400F608B394E916F906D4F7E50CF61CBA9419
:100484000F2D40E3040F09DF17DF0E2D40E3040FA7
:1004940004DF12DFE718F91EA394E916F906D4F76E
:1004A400E70CF91EAA940F2D40E3040FF6DE04DFD7
:1004B4000E2D40E3040FF1DEFFDEE818F90A9394F1
:1004C400E916F906D4F7E80CF91E9A940F2D40E3C7
:1004D400040FE3DEF1DE0E2D40E3040FDEDEECDE7E
:1004E4006E2D0F2D40E3040FD8DEE6DE0E2D40E323
:1004F400040FD3DEE1DEFFCF08E3C4DEDDDEF8DE89
:1005040008E3C0DED9DEEBDE08E3BCDED5DE08E3BB
:10051400B9DED2DE08E0B6DECFDE01E0B3DECCDE4B
:1005240006E0B0DEC9DE0EE0ADDEC6DE0BE2B5DE0F
:10053400C3DE0C2DB0E30B0FB0DEBEDE0B2D0B0FB4
:10054400ACDEBADE0A2D0B0FA8DEB6DE092D0B0FCA
:10055400A4DEB2DE062F0B0FA0DEAEDE0C94240167
:00000001FF
