:020000020000FC
:0C0000000C9433000C9432000C9432007D
:10005C000C943C000C943200189520E010E001E266
:10006C000EBF0FEF0DBF0FEF07B961C00FB70F93A6
:10007C00DF93CF939F938F93809102029091030211
:10008C00019684380EE19007B1F420C048B923954D
:10009C002C3311F420E01395C2E0D2E00027099331
:1000AC0008838091000290910102019680930002D6
:1000BC009093010204C080930202909303028F91EB
:1000CC009F91CF91DF910F910FBF1895442730E28C
:1000DC003223369536953695432B30E132233695BF
:1000EC00432B38E03223330F432B34E03223330FCE
:1000FC00330F330F432B32E03223330F330F330FD5
:10010C00330F330F432B31E03223330F330F330FC5
:10011C00330F330F330F330F432B31E03123330FB6
:10012C00432B32E031233695432B0C944C0040E0AA
:10013C0048B940EFC2E0D2E0002709930883C0E041
:10014C00D2E000270993088300E004BD02E005BD5E
:0A015C0001E000936E007894FFCFDD
:00000001FF
