:020000020000FC
:040000000C94330029
:10005C000C94A0000C94320018950FEF0DBF01E228
:10006C000EBF0FEF0DB900BB01B9002701BB02B9E0
:10007C0000270AB90BB90AE2009369000DB30760B7
:10008C000DBB00EF00930A010FEF07B908B910E0A0
:10009C0010939B0010E010939A0010E0109306024E
:1000AC0011E01093910011E21093900008E300D13D
:1000BC0019D134D108E3FCD015D127D108E3F8D0FD
:1000CC0011D108E3F5D00ED108E0F2D00BD101E04C
:1000DC00EFD008D106E0ECD005D10EE0E9D002D18A
:1000EC000DE4F1D0FFD001E6EED0FCD008E7EBD068
:1000FC00F9D000E2E8D0F6D003E7E5D0F3D004E77E
:10010C00E2D0F0D001E6DFD0EDD004E7DCD0EAD0CD
:10011C0009E6D9D0E7D00FE6D6D0E4D00EE6D3D09E
:10012C00E1D003E7D0D0DED00AE3CDD0DBD0789499
:10013C000C940E010FB70F93DF93CF939F938F9374
:10014C007F936F935F93AF929F928F9280910202F5
:10015C009091030201968D3003E0900709F402C0E0
:10016C000C94FD000C949A016091040270910502AC
:10017C000AE0609F802D912D709F782F892F00E0D1
:10018C009927700F801D911D5091060260E0751724
:10019C00860760F060919A0070919B0001E010E07E
:1001AC00601B710B60939A0070939B0060919A0096
:1001BC0070919B0001E010E0600F711F60939A003A
:1001CC0070939B0060E070E06093040270930502F2
:1001DC00C2E0D2E00027099308838091000290913D
:1001EC0001020196809300029093010204C0809357
:1001FC000202909303028F909F90AF905F916F914A
:10020C007F918F919F91CF91DF910F910FBF189597
:10021C00C2E0D2E0002709930883C0E0D2E00027B7
:10022C000993088300E004BD02E005BD01E00093E2
:10023C006E0078940E94270110E3010F44D052D035
:10024C00FFCF4FEE332740930B010FEF0A95F1F7D9
:10025C00009109010F700F3049F041E02227102F57
:10026C00142309F40AC02395440FF9CF333049F312
:10027C000894441F33950C942901333049F02330F2
:10028C0059F0022F000F020F030F03950C945D0120
:10029C000AE0020F0C945D01303029F0313031F05E
:1002AC000FE00C945D010EE00C945D0100270895A5
:1002BC0001BB0000169A0000000000001698000018
:1002CC0000000000089501BB179A00000000000018
:1002DC00169A0000000000001698000000000000B4
:1002EC00179808950F93002700BB01BB159A0000C7
:1002FC00169A0000000000000FB1169807FDF7CF0A
:10030C0015980FEF00BB0F9108958F939F939FE06B
:10031C008CE90197F1F79F918F910895F6DFF5DF46
:0C032C00F4DFF3DFF2DF08950C94BA0058
:00000001FF
