:020000020000FC
:100000000C9433000C9459000C947F000C94A500C0
:10005C000C94C0000C94320018950FEF0DBF01E208
:10006C000EBF0FEF0DB900BB01B9002701BB02B9E0
:10007C0000270AB90BB90AE2009369000DB30760B7
:10008C000DBB10E010939B0010E010939A0010E051
:10009C001093060211E01093910011E2109390005E
:1000AC0078940C9418010F930FB70F93213029F407
:1000BC0022270F910FBF0F91189521E00091060296
:1000CC00043611F014E1010F0093060271E055277C
:1000DC000BED802E0CE7902E03E0A02E871A950ACC
:1000EC00A50A85169506A506C9F70F910FBF0F91A6
:1000FC0018950F930FB70F93213029F422270F91E6
:10010C000FBF0F91189521E000910602003011F0FD
:10011C0014E1011B0093060271E055270BED802EB4
:10012C000CE7902E03E0A02E871A950AA50A8516D7
:10013C009506A506C9F70F910FBF0F9118950F9350
:10014C000FB70F937F936F934395443069F4442713
:10015C00609104027091050201E0600F00E0701FD5
:10016C0060930402709305026F917F910F910FBF02
:10017C000F9118950FB70F93DF93CF939F938F9396
:10018C00809102029091030201968D3003E090075A
:10019C00F1F560910402709105020AE0609F802DD8
:1001AC00912D709F800D911D6091060270E0861755
:1001BC00970760F060919A0070919B0001E010E04D
:1001CC00601B710B60939A0070939B0060919A0076
:1001DC0070919B0001E010E0600F711F60939A001A
:1001EC0070939B0060E070E06093040270930502D2
:1001FC00C2E0D2E00027099308838091000290911D
:10020C0001020196809300029093010204C0809336
:10021C000202909303028F919F91CF91DF910F91E6
:10022C000FBF1895222700E004BD02E005BD01E0D8
:10023C0000936E007894FFCF01BB0000169A00006B
:10024C00000000001698000000000000089501BB9B
:10025C00179A000000000000169A00000000000031
:10026C001698000000000000179808950F930027BF
:10027C0000BB01BB159A0000169A0000000000009C
:10028C000FB1169807FDF7CF15980FEF00BB0F9124
:10029C0008958F939F939FE08CE90197F1F79F91BD
:1002AC008F910895F6DFF5DFF4DFF3DFF2DF0895C9
:00000001FF
