:020000020000FC
:100000000C9433000C9432000C9432000C94800059
:10005C000C949B000C943200189501E20EBF0FEF2C
:10006C000DBF00E2009369000DB304600DBB7894E2
:10007C000FEF00BB01B9002701BB02B908E395D013
:10008C00AED0C9D008E391D0AAD0BCD008E38DD0B3
:10009C00A6D008E38AD0A3D008E087D0A0D001E096
:1000AC0084D09DD006E081D09AD00EE07ED097D03F
:1000BC0003E586D094D000E783D091D005E680D0BC
:1000CC008ED005E67DD08BD004E67AD088D00AE3BA
:1000DC0077D085D000E374D082D000E371D07FD08C
:1000EC0000E36ED07CD000E36BD079D000E368D015
:1000FC0076D047C00F930FB70F937F936F934395B1
:10010C00443069F44427609104027091050201E0C7
:10011C00600F00E0701F80930002909301026F91BA
:10012C007F910F910FBF0F9118950FB70F93DF931E
:10013C00CF939F938F93809102029091030201962B
:10014C008D3003E0900791F400C00C941701C2E0CD
:10015C00D2E000270993088380910002909101025C
:10016C000196809300029093010204C080930202D6
:10017C00909303028F919F91CF91DF910F910FBFBD
:10018C0018954427C2E0D2E0002709930883C0E009
:10019C00D2E000270993088300E004BD02E005BD0E
:1001AC0001E000936E007894FFCF01BB0000169A1B
:1001BC0000000000000016980000000000000895E8
:1001CC0001BB179A000000000000169A0000000006
:1001DC0000001698000000000000179808950F9377
:1001EC00002700BB01BB159A0000169A0000000006
:1001FC0000000FB1169807FDF7CF15980FEF00BB55
:10020C000F9108958F939F939FE08CE90197F1F7DD
:10021C009F918F910895F6DFF5DFF4DFF3DFF2DFC6
:10022C00089500E1302E07E2402E08EE502E03E038
:10023C00602E04E6702E0AE0802EDD24CC24BB2434
:10024C00AA24992490E000910402102F0091050239
:10025C00202F002700930002009301021319240998
:10026C00D39419172907D4F7130D241DDA941519F3
:10027C002609C39419172907D4F7150D261DCA94FE
:10028C001719290BB39419172907D4F7170D291F20
:10029C00BA941819290BA39419172907D4F7180D18
:1002AC00291FAA94912E01E080DF99DF06E07DDF03
:1002BC0096DF0EE07ADF93DF03E582DF90DF00E765
:1002CC007FDF8DDF05E67CDF8ADF05E679DF87DF00
:1002DC0004E676DF84DF0AE373DF81DF0D2DB0E304
:1002EC000B0F6EDF7CDF0C2D0B0F6ADF78DFB0E3BA
:1002FC000B2D0B0F65DF73DFB0E30A2D0B0F60DFE7
:10030C006EDFB0E3092D0B0F5BDF69DF00E358DF15
:06031C0066DF0C94AD0049
:00000001FF
