:020000020000FC
:100000000C9433000C9494000C94DD000C942601A5
:10005C000C9441010C94320018950FEF0DBF01E286
:10006C000EBF0FEF0DB900BB01B9002701BB02B9E0
:10007C0000270AB90BB90AE2009369000DB30760B7
:10008C000DBB10E010939B0010E010939A0010E051
:10009C001093060211E01093910011E2109390005E
:1000AC0008E370D189D1A4D108E36CD185D197D163
:1000BC0008E368D181D108E365D17ED108E062D133
:1000CC007BD101E05FD178D106E05CD175D10EE037
:1000DC0059D172D103E561D16FD100E75ED16CD1FA
:1000EC0005E65BD169D105E658D166D104E655D158
:1000FC0063D10AE352D160D100E34FD15DD100E36B
:10010C004CD15AD100E349D157D100E346D154D157
:10011C0000E343D151D178940C94AF010F931F930A
:10012C000FB70F935F937F93AF929F928F92213073
:10013C0051F422278F909F90AF907F915F910F91F8
:10014C000FBF0F91189521E000910602043611F0B3
:10015C0014E1010F0093060208E014D12DD101E047
:10016C0011D12AD106E00ED127D10EE00BD124D12A
:10017C0000E313D121D100E310D11ED171E055273A
:10018C000BED802E0CE7902E03E0A02E871A950A1B
:10019C00A50A85169506A506C9F78F909F90AF9076
:1001AC007F915F910F910FBF1F910F9118950F9336
:1001BC001F930FB70F935F937F93AF929F928F9282
:1001CC00213051F422278F909F90AF907F915F91B7
:1001DC000F910FBF0F91189521E00091060200308E
:1001EC0011F014E1011B0093060208E0CBD0E4D01F
:1001FC0001E0C8D0E1D006E0C5D0DED00EE0C2D020
:10020C00DBD001E3CAD0D8D001E3C7D0D5D071E0A0
:10021C0055270BED802E0CE7902E03E0A02E871AAD
:10022C00950AA50A85169506A506C9F78F909F9085
:10023C00AF907F915F910F910FBF1F910F91189508
:10024C000F930FB70F937F936F934395443069F4DB
:10025C004427609104027091050201E0600F00E0F8
:10026C00701F60930402709305026F917F910F9140
:10027C000FBF0F9118950FB70F93DF93CF939F93E9
:10028C008F937F936F935F93AF929F928F92809196
:10029C0002029091030201968D3003E0900709F45D
:1002AC0002C00C949E010C940402609104027091A3
:1002BC0005020AE0609F802D912D709F782F892F69
:1002CC0000E09927700F801D911D5091060260E08F
:1002DC007517860760F060919A0070919B0001E0A1
:1002EC0010E0601B710B60939A0070939B006091FF
:1002FC009A0070919B0001E010E0600F711F6093F9
:10030C009A0070939B0060E070E06093040270931D
:10031C000502C2E0D2E00027099308838091000215
:10032C00909101020196809300029093010204C007
:10033C0080930202909303028F909F90AF905F91F5
:10034C006F917F918F919F91CF91DF910F910FBF03
:10035C0018952227C4E0D2E0002709930883C2E055
:10036C00D2E0002709930883C0E0D2E0002709936C
:10037C00088300E004BD02E005BD01E000936E00BF
:10038C007894FFCF01BB0000169A0000000000001B
:10039C001698000000000000089501BB179A000099
:1003AC0000000000169A00000000000016980000E3
:1003BC0000000000179808950F93002700BB01BBA5
:1003CC00159A0000169A0000000000000FB1169854
:1003DC0007FDF7CF15980FEF00BB0F9108958F9382
:1003EC009F939FE08CE90197F1F79F918F9108956E
:1003FC00F6DFF5DFF4DFF3DFF2DF089501E0C2DFB3
:10040C00DBDF06E0BFDFD8DF0EE0BCDFD5DF03E5C6
:10041C00C4DFD2DF00E7C1DFCFDF05E6BEDFCCDF14
:10042C0005E6BBDFC9DF04E6B8DFC6DF0AE3B5DFEC
:10043C00C3DF00E1302E07E2402E08EE502E03E021
:10044C00602E04E6902E0AE0A02EFF24EE24DD247C
:10045C00CC24BB2490E000910402602E0091050294
:10046C00702E002763187408F39469167906D4F774
:10047C00630C741CFA9465187608E3946916790673
:10048C00D4F7650C761CEA946918790AD39469162A
:10049C007906D4F7690C791EDA946A18790AC39430
:1004AC0069167906D4F76A0C791ECA94B62C0F2DEE
:1004BC00B0E30B0F72DF80DF0E2D0B0F6EDF7CDFD6
:1004CC00B0E30D2D0B0F69DF77DFB0E30C2D0B0FB5
:1004DC0064DF72DFB0E30B2D0B0F5FDF6DDF00E32A
:0804EC005CDF6ADF0C945B0188
:00000001FF
