:020000020000FC
:100000000C9433000C9494000C94AD000C94C60036
:10005C000C94E1000C94320018950FEF0DBF01E2E7
:10006C000EBF0FEF0DB900BB01B9002701BB02B9E0
:10007C0000270AB90BB90AE2009369000DB30760B7
:10008C000DBB10E010939B0010E010939A0010E051
:10009C001093060211E01093910011E2109390005E
:1000AC0008E3F0D009D124D108E3ECD005D117D165
:1000BC0008E3E8D001D108E3E5D0FED008E0E2D0B7
:1000CC00FBD001E0DFD0F8D006E0DCD0F5D00EE0BC
:1000DC00D9D0F2D003E5E1D0EFD000E7DED0ECD000
:1000EC0005E6DBD0E9D005E6D8D0E6D004E6D5D0DD
:1000FC00E3D00AE3D2D0E0D000E3CFD0DDD000E3F0
:10010C00CCD0DAD000E3C9D0D7D000E3C6D0D4D05D
:10011C0000E3C3D0D1D078940C943E010F931F937D
:10012C000FB70F93213029F422270F910FBF0F9196
:10013C00189521E000910602043611F014E1010F2C
:10014C00009306020F910FBF1F910F9118950F93FB
:10015C001F930FB70F93213029F422270F910FBF54
:10016C000F91189521E000910602003011F014E176
:10017C00011B009306020F910FBF1F910F91189551
:10018C000F930FB70F937F936F934395443069F49C
:10019C004427609104027091050201E0600F00E0B9
:1001AC00701F60930402709305026F917F910F9101
:1001BC000FBF0F9118950FB70F93DF93CF939F93AA
:1001CC008F93809102029091030201968D3003E08F
:1001DC00900709F402C00C9433010C9484016091D3
:1001EC000402709105020AE0609F802D912D709F92
:1001FC00800D911D6091060270E08617970760F0E4
:10020C0060919A0070919B0001E010E0601B710BF3
:10021C0060939A0070939B0060919A0070919B0080
:10022C0001E010E0600F711F60939A0070939B00C7
:10023C0060E070E06093040270930502C2E0D2E0CB
:10024C000027099308838091000290910102019686
:10025C00809300029093010204C080930202909359
:10026C0003028F919F91CF91DF910F910FBF189542
:10027C00222700E004BD02E005BD01E000936E0002
:10028C007894FFCF01BB0000169A0000000000001C
:10029C001698000000000000089501BB179A00009A
:1002AC0000000000169A00000000000016980000E4
:1002BC0000000000179808950F93002700BB01BBA6
:1002CC00159A0000169A0000000000000FB1169855
:1002DC0007FDF7CF15980FEF00BB0F9108958F9383
:1002EC009F939FE08CE90197F1F79F918F9108956F
:1002FC00F6DFF5DFF4DFF3DFF2DF089500E1302EF7
:10030C0007E2402E08EE502E03E0602E04E6702E1D
:10031C000AE0802EFF24EE24DD24CC24BB2490E0C4
:10032C0000910402602E00910502702E00276318C4
:10033C007408F39469167906D4F7630C741CFA9458
:10034C0065187608E39469167906D4F7650C761C63
:10035C00EA946718790AD39469167906D4F7670C6E
:10036C00791EDA946818790AC39469167906D4F759
:10037C00680C791ECA94B62C01E084DF9DDF06E080
:10038C0081DF9ADF0EE07EDF97DF03E586DF94DF07
:10039C0000E783DF91DF05E680DF8EDF05E67DDF9A
:1003AC008BDF04E67ADF88DF0AE377DF85DF0F2D4A
:1003BC00B0E30B0F72DF80DF0E2D0B0F6EDF7CDFD7
:1003CC00B0E30D2D0B0F69DF77DFB0E30C2D0B0FB6
:1003DC0064DF72DFB0E30B2D0B0F5FDF6DDF00E32B
:0803EC005CDF6ADF0C94F500F0
:00000001FF
